{
  "contractName": "Voting",
  "abi": [
    {
      "constant": true,
      "inputs": [
        {
          "name": "candidate",
          "type": "bytes32"
        }
      ],
      "name": "totalVotesFor",
      "outputs": [
        {
          "name": "",
          "type": "uint256"
        }
      ],
      "payable": false,
      "stateMutability": "view",
      "type": "function"
    },
    {
      "constant": true,
      "inputs": [],
      "name": "tokensSold",
      "outputs": [
        {
          "name": "",
          "type": "uint256"
        }
      ],
      "payable": false,
      "stateMutability": "view",
      "type": "function"
    },
    {
      "constant": true,
      "inputs": [
        {
          "name": "user",
          "type": "address"
        }
      ],
      "name": "voterDetails",
      "outputs": [
        {
          "name": "",
          "type": "uint256"
        },
        {
          "name": "",
          "type": "uint256[]"
        }
      ],
      "payable": false,
      "stateMutability": "view",
      "type": "function"
    },
    {
      "constant": false,
      "inputs": [
        {
          "name": "candidate",
          "type": "bytes32"
        },
        {
          "name": "votesInTokens",
          "type": "uint256"
        }
      ],
      "name": "voteForCandidate",
      "outputs": [],
      "payable": false,
      "stateMutability": "nonpayable",
      "type": "function"
    },
    {
      "constant": true,
      "inputs": [
        {
          "name": "",
          "type": "bytes32"
        }
      ],
      "name": "votesReceived",
      "outputs": [
        {
          "name": "",
          "type": "uint256"
        }
      ],
      "payable": false,
      "stateMutability": "view",
      "type": "function"
    },
    {
      "constant": true,
      "inputs": [],
      "name": "totalTokens",
      "outputs": [
        {
          "name": "",
          "type": "uint256"
        }
      ],
      "payable": false,
      "stateMutability": "view",
      "type": "function"
    },
    {
      "constant": true,
      "inputs": [],
      "name": "tokenPrice",
      "outputs": [
        {
          "name": "",
          "type": "uint256"
        }
      ],
      "payable": false,
      "stateMutability": "view",
      "type": "function"
    },
    {
      "constant": false,
      "inputs": [
        {
          "name": "account",
          "type": "address"
        }
      ],
      "name": "transferTo",
      "outputs": [],
      "payable": false,
      "stateMutability": "nonpayable",
      "type": "function"
    },
    {
      "constant": false,
      "inputs": [],
      "name": "buy",
      "outputs": [
        {
          "name": "",
          "type": "uint256"
        }
      ],
      "payable": true,
      "stateMutability": "payable",
      "type": "function"
    },
    {
      "constant": true,
      "inputs": [],
      "name": "allCandidate",
      "outputs": [
        {
          "name": "",
          "type": "bytes32[]"
        }
      ],
      "payable": false,
      "stateMutability": "view",
      "type": "function"
    },
    {
      "constant": true,
      "inputs": [
        {
          "name": "",
          "type": "uint256"
        }
      ],
      "name": "candidateList",
      "outputs": [
        {
          "name": "",
          "type": "bytes32"
        }
      ],
      "payable": false,
      "stateMutability": "view",
      "type": "function"
    },
    {
      "constant": true,
      "inputs": [],
      "name": "balanceTokens",
      "outputs": [
        {
          "name": "",
          "type": "uint256"
        }
      ],
      "payable": false,
      "stateMutability": "view",
      "type": "function"
    },
    {
      "constant": true,
      "inputs": [
        {
          "name": "candidate",
          "type": "bytes32"
        }
      ],
      "name": "indexOfCandidate",
      "outputs": [
        {
          "name": "",
          "type": "uint256"
        }
      ],
      "payable": false,
      "stateMutability": "view",
      "type": "function"
    },
    {
      "inputs": [
        {
          "name": "tokens",
          "type": "uint256"
        },
        {
          "name": "pricePerToken",
          "type": "uint256"
        },
        {
          "name": "candidateNames",
          "type": "bytes32[]"
        }
      ],
      "payable": false,
      "stateMutability": "nonpayable",
      "type": "constructor"
    }
  ],
  "bytecode": "0x6060604052341561000f57600080fd5b604051610c82380380610c82833981016040528080519060200190919080519060200190919080518201919050508060029080519060200190610053929190610071565b508260038190555082600481905550816005819055505050506100e9565b8280548282559060005260206000209081019282156100b3579160200282015b828111156100b2578251829060001916905591602001919060010190610091565b5b5090506100c091906100c4565b5090565b6100e691905b808211156100e25760008160009055506001016100ca565b5090565b90565b610b8a806100f86000396000f3006060604052600436106100c5576000357c0100000000000000000000000000000000000000000000000000000000900463ffffffff1680632f265cf7146100ca578063518ab2a8146101055780635938750d1461012e5780636b2dc6b5146101c35780637021939f146101f35780637e1c0c091461022e5780637ff9b59614610257578063a03fa7e314610280578063a6f2ae3a146102b9578063af3db5e4146102d7578063b13c744b14610341578063e4494a0f14610380578063ecd098b0146103a9575b600080fd5b34156100d557600080fd5b6100ef6004808035600019169060200190919050506103e4565b6040518082815260200191505060405180910390f35b341561011057600080fd5b61011861041d565b6040518082815260200191505060405180910390f35b341561013957600080fd5b610165600480803573ffffffffffffffffffffffffffffffffffffffff1690602001909190505061042b565b6040518083815260200180602001828103825283818151815260200191508051906020019060200280838360005b838110156101ae578082015181840152602081019050610193565b50505050905001935050505060405180910390f35b34156101ce57600080fd5b6101f1600480803560001916906020019091908035906020019091905050610513565b005b34156101fe57600080fd5b6102186004808035600019169060200190919050506107aa565b6040518082815260200191505060405180910390f35b341561023957600080fd5b6102416107c2565b6040518082815260200191505060405180910390f35b341561026257600080fd5b61026a6107c8565b6040518082815260200191505060405180910390f35b341561028b57600080fd5b6102b7600480803573ffffffffffffffffffffffffffffffffffffffff169060200190919050506107ce565b005b6102c1610828565b6040518082815260200191505060405180910390f35b34156102e257600080fd5b6102ea610932565b6040518080602001828103825283818151815260200191508051906020019060200280838360005b8381101561032d578082015181840152602081019050610312565b505050509050019250505060405180910390f35b341561034c57600080fd5b6103626004808035906020019091905050610994565b60405180826000191660001916815260200191505060405180910390f35b341561038b57600080fd5b6103936109b8565b6040518082815260200191505060405180910390f35b34156103b457600080fd5b6103ce6004808035600019169060200190919050506109be565b6040518082815260200191505060405180910390f35b60006103ef82610a3c565b15156103fa57600080fd5b600160008360001916600019168152602001908152602001600020549050919050565b600060045460035403905090565b6000610435610ae5565b6000808473ffffffffffffffffffffffffffffffffffffffff1673ffffffffffffffffffffffffffffffffffffffff168152602001908152602001600020600101546000808573ffffffffffffffffffffffffffffffffffffffff1673ffffffffffffffffffffffffffffffffffffffff1681526020019081526020016000206002018080548060200260200160405190810160405280929190818152602001828054801561050357602002820191906000526020600020905b8154815260200190600101908083116104ef575b5050505050905091509150915091565b6000806000610521856109be565b92507fffffffffffffffffffffffffffffffffffffffffffffffffffffffffffffffff831415151561055257600080fd5b60008060003373ffffffffffffffffffffffffffffffffffffffff1673ffffffffffffffffffffffffffffffffffffffff16815260200190815260200160002060020180549050141561062757600091505b600280549050821015610626576000803373ffffffffffffffffffffffffffffffffffffffff1673ffffffffffffffffffffffffffffffffffffffff16815260200190815260200160002060020180548060010182816106049190610af9565b91600052602060002090016000809091909150555081806001019250506105a4565b5b6106bf6000803373ffffffffffffffffffffffffffffffffffffffff1673ffffffffffffffffffffffffffffffffffffffff1681526020019081526020016000206002018054806020026020016040519081016040528092919081815260200182805480156106b557602002820191906000526020600020905b8154815260200190600101908083116106a1575b5050505050610a9c565b6000803373ffffffffffffffffffffffffffffffffffffffff1673ffffffffffffffffffffffffffffffffffffffff1681526020019081526020016000206001015403905083811015151561071357600080fd5b8360016000876000191660001916815260200190815260200160002060008282540192505081905550836000803373ffffffffffffffffffffffffffffffffffffffff1673ffffffffffffffffffffffffffffffffffffffff1681526020019081526020016000206002018481548110151561078b57fe5b9060005260206000209001600082825401925050819055505050505050565b60016020528060005260406000206000915090505481565b60035481565b60055481565b8073ffffffffffffffffffffffffffffffffffffffff166108fc3073ffffffffffffffffffffffffffffffffffffffff16319081150290604051600060405180830381858888f19350505050151561082557600080fd5b50565b6000806005543481151561083857fe5b049050600454811115151561084c57600080fd5b336000803373ffffffffffffffffffffffffffffffffffffffff1673ffffffffffffffffffffffffffffffffffffffff16815260200190815260200160002060000160006101000a81548173ffffffffffffffffffffffffffffffffffffffff021916908373ffffffffffffffffffffffffffffffffffffffff160217905550806000803373ffffffffffffffffffffffffffffffffffffffff1673ffffffffffffffffffffffffffffffffffffffff16815260200190815260200160002060010160008282540192505081905550806004600082825403925050819055508091505090565b61093a610b25565b600280548060200260200160405190810160405280929190818152602001828054801561098a57602002820191906000526020600020905b81546000191681526020019060010190808311610972575b5050505050905090565b6002818154811015156109a357fe5b90600052602060002090016000915090505481565b60045481565b600080600090505b600280549050811015610a125782600019166002828154811015156109e757fe5b906000526020600020900154600019161415610a0557809150610a36565b80806001019150506109c6565b7fffffffffffffffffffffffffffffffffffffffffffffffffffffffffffffffff91505b50919050565b600080600090505b600280549050811015610a91578260001916600282815481101515610a6557fe5b906000526020600020900154600019161415610a845760019150610a96565b8080600101915050610a44565b600091505b50919050565b6000806000809150600090505b8351811015610adb578381815181101515610ac057fe5b90602001906020020151820191508080600101915050610aa9565b8192505050919050565b602060405190810160405280600081525090565b815481835581811511610b2057818360005260206000209182019101610b1f9190610b39565b5b505050565b602060405190810160405280600081525090565b610b5b91905b80821115610b57576000816000905550600101610b3f565b5090565b905600a165627a7a723058209492f4e8ac65939512dac398a4d11f29144d641eeeda516bcb280bb63f9440940029",
  "source": "pragma solidity ^0.4.18;\n\ncontract Voting{\n\n   struct voter{\n      address voterAddress;\n      uint tokensBought;\n      uint[] tokensUsedPerCandidate;\n   }\n\n   mapping(address=>voter) voterInfo;\n\n   mapping (bytes32 => uint) public votesReceived;\n\n   bytes32[] public candidateList;\n\n   uint public totalTokens;\n   uint public balanceTokens;\n   uint public tokenPrice;\n\n   function Voting(uint tokens,uint pricePerToken,bytes32[] candidateNames) public {\n       candidateList = candidateNames;\n       totalTokens = tokens;\n       balanceTokens = tokens;\n       tokenPrice = pricePerToken;\n   }\n\n   function totalVotesFor(bytes32 candidate) view public returns(uint){\n       require(validCandidate(candidate));\n\n       return votesReceived[candidate];\n   }\n   \n   //投票\n   function voteForCandidate(bytes32 candidate,uint votesInTokens) public {\n       uint index = indexOfCandidate(candidate);\n       require(index != uint(-1));\n\n       if(voterInfo[msg.sender].tokensUsedPerCandidate.length == 0){\n          for(uint i = 0;i < candidateList.length; i++){\n              voterInfo[msg.sender].tokensUsedPerCandidate.push(0);\n          }\n       }\n       uint avaliableTokens = voterInfo[msg.sender].tokensBought - totalTokensUsed(voterInfo[msg.sender].tokensUsedPerCandidate);\n       require(avaliableTokens >= votesInTokens);\n\n       votesReceived[candidate] += votesInTokens;\n       voterInfo[msg.sender].tokensUsedPerCandidate[index] += votesInTokens;\n   }\n   \n   function totalTokensUsed(uint[] _tokenUsedPerCandidate) pure private returns(uint){\n       uint totalUsedTokens = 0;\n       for(uint i = 0; i < _tokenUsedPerCandidate.length; i++){\n          totalUsedTokens += _tokenUsedPerCandidate[i];\n       }\n\n       return totalUsedTokens;\n   }\n   \n   function indexOfCandidate(bytes32 candidate) view public returns(uint){\n       for(uint i = 0; i < candidateList.length;i++){\n          if(candidateList[i] == candidate){\n             return i;\n          }\n       }\n\n       return uint(-1);\n   }\n\n   function buy() payable public returns (uint){\n      uint tokensToBuy = msg.value / tokenPrice;\n\n      require(tokensToBuy <= balanceTokens);\n      voterInfo[msg.sender].voterAddress = msg.sender;\n      voterInfo[msg.sender].tokensBought += tokensToBuy;\n      balanceTokens -= tokensToBuy;\n\n      return tokensToBuy;\n   }\n   function tokensSold() view public returns(uint){\n      return totalTokens - balanceTokens;\n   }\n\n   function voterDetails(address user) view public returns (uint, uint[]){\n      return (voterInfo[user].tokensBought, voterInfo[user].tokensUsedPerCandidate);\n   }\n\n   function transferTo(address account) public{\n      account.transfer(this.balance);\n   }\n\n   function allCandidate() view public returns (bytes32[]){\n      return candidateList;\n   }\n   //判断是否有该候选人\n   function validCandidate(bytes32 candidate) view private returns(bool){\n       for(uint i = 0; i < candidateList.length; i++){\n           if(candidateList[i] == candidate){\n                return true;\n           }\n       }\n       return false;\n   }\n }\n",
  "sourcePath": "/Users/u-en/Desktop/Voting/Truffle_Voting/contracts/Voting.sol",
  "compiler": {
    "name": "solc",
    "version": "0.4.18+commit.9cf6e910.Emscripten.clang"
  },
  "schemaVersion": "1.0.1",
  "updatedAt": "2018-05-21T06:20:43.261Z"
}