{
  "contractName": "Voting",
  "abi": [
    {
      "constant": true,
      "inputs": [
        {
          "name": "candidate",
          "type": "bytes32"
        }
      ],
      "name": "totalVotesFor",
      "outputs": [
        {
          "name": "",
          "type": "uint8"
        }
      ],
      "payable": false,
      "stateMutability": "view",
      "type": "function"
    },
    {
      "constant": true,
      "inputs": [
        {
          "name": "",
          "type": "bytes32"
        }
      ],
      "name": "votesReceived",
      "outputs": [
        {
          "name": "",
          "type": "uint8"
        }
      ],
      "payable": false,
      "stateMutability": "view",
      "type": "function"
    },
    {
      "constant": true,
      "inputs": [
        {
          "name": "",
          "type": "uint256"
        }
      ],
      "name": "candidateList",
      "outputs": [
        {
          "name": "",
          "type": "bytes32"
        }
      ],
      "payable": false,
      "stateMutability": "view",
      "type": "function"
    },
    {
      "constant": false,
      "inputs": [
        {
          "name": "candidate",
          "type": "bytes32"
        }
      ],
      "name": "voteForCandidate",
      "outputs": [],
      "payable": false,
      "stateMutability": "nonpayable",
      "type": "function"
    },
    {
      "inputs": [
        {
          "name": "candidateNames",
          "type": "bytes32[]"
        }
      ],
      "payable": false,
      "stateMutability": "nonpayable",
      "type": "constructor"
    }
  ],
  "bytecode": "0x6060604052341561000f57600080fd5b604051610390380380610390833981016040528080518201919050508060019080519060200190610041929190610048565b50506100c0565b82805482825590600052602060002090810192821561008a579160200282015b82811115610089578251829060001916905591602001919060010190610068565b5b509050610097919061009b565b5090565b6100bd91905b808211156100b95760008160009055506001016100a1565b5090565b90565b6102c1806100cf6000396000f300606060405260043610610062576000357c0100000000000000000000000000000000000000000000000000000000900463ffffffff1680632f265cf7146100675780637021939f146100a8578063b13c744b146100e9578063cc9ab26714610128575b600080fd5b341561007257600080fd5b61008c60048080356000191690602001909190505061014f565b604051808260ff1660ff16815260200191505060405180910390f35b34156100b357600080fd5b6100cd600480803560001916906020019091905050610194565b604051808260ff1660ff16815260200191505060405180910390f35b34156100f457600080fd5b61010a60048080359060200190919050506101b4565b60405180826000191660001916815260200191505060405180910390f35b341561013357600080fd5b61014d6004808035600019169060200190919050506101d8565b005b600061015a82610235565b151561016557600080fd5b600080836000191660001916815260200190815260200160002060009054906101000a900460ff169050919050565b60006020528060005260406000206000915054906101000a900460ff1681565b6001818154811015156101c357fe5b90600052602060002090016000915090505481565b6101e181610235565b15156101ec57600080fd5b6001600080836000191660001916815260200190815260200160002060008282829054906101000a900460ff160192506101000a81548160ff021916908360ff16021790555050565b600080600090505b60018054905081101561028a57826000191660018281548110151561025e57fe5b90600052602060002090015460001916141561027d576001915061028f565b808060010191505061023d565b600091505b509190505600a165627a7a723058201b2996106fb77a3376f4bdf429f3af7003fc572de74e08905327c917be7bdec50029",
  "source": "pragma solidity ^0.4.18;\n\ncontract Voting{\n   mapping (bytes32 => uint8) public votesReceived;\n\n   bytes32[] public candidateList;\n\n   function Voting(bytes32[] candidateNames) public {\n       candidateList = candidateNames;\n   }\n\n   function totalVotesFor(bytes32 candidate) view public returns(uint8){\n       require(validCandidate(candidate));\n\n       return votesReceived[candidate];\n   }\n\n   function voteForCandidate(bytes32 candidate) public {\n       require(validCandidate(candidate));\n\n       votesReceived[candidate] += 1;\n   }\n\n   function validCandidate(bytes32 candidate) view private returns(bool){\n       for(uint i = 0; i < candidateList.length; i++){\n           if(candidateList[i] == candidate){\n                return true;\n           }\n       }\n       return false;\n   }\n }\n",
  "sourcePath": "/Users/u-en/Desktop/Voting/contracts/Voting.sol",
  "compiler": {
    "name": "solc",
    "version": "0.4.18+commit.9cf6e910.Emscripten.clang"
  },
  "schemaVersion": "1.0.1",
  "updatedAt": "2018-05-15T04:22:23.655Z"
}